:100000000C942A000C9434000C9434000C943400AA
:100010000C9434000C9434000C9434000C94340090
:100020000C9434000C9434000C9434000C94340080
:100030000C9434000C9434000C9434000C94340070
:100040000C9434000C9434000C9434000C94340060
:100050000C94340011241FBECFE5D8E0DEBFCDBF25
:100060000E94D8040C94FE040C940000DF93CF93FC
:10007000CDB7DEB72E970FB6F894DEBF0FBECDBF5B
:100080008A836B834C8381E089838A81843008F082
:100090000DC18B81883008F009C18C81882321F043
:1000A0008C81813009F002C18A81282F30E03E879F
:1000B0002D878D859E858130910509F44FC02D8552
:1000C0003E85223031052CF48D859E85009771F098
:1000D000EEC02D853E852230310509F477C08D852F
:1000E0009E858330910509F4A9C0E1C08C81282F39
:1000F00030E03C872B878B859C85009731F02B85E2
:100100003C8521303105A9F0D2C0AAE3B0E0EAE392
:10011000F0E08081482F8B81282F30E081E090E053
:10012000022E02C0880F991F0A94E2F7842B8C9349
:10013000BEC0AAE3B0E0EAE3F0E08081482F8B8103
:10014000282F30E081E090E0022E02C0880F991F36
:100150000A94E2F7809584238C93A9C08C81282F80
:1001600030E03A87298789859A85009731F029857B
:100170003A8521303105A9F09AC0A7E3B0E0E7E362
:10018000F0E08081482F8B81282F30E081E090E0E3
:10019000022E02C0880F991F0A94E2F7842B8C93D9
:1001A00086C0A7E3B0E0E7E3F0E08081482F8B81D1
:1001B000282F30E081E090E0022E02C0880F991FC6
:1001C0000A94E2F7809584238C9371C08C81282F48
:1001D00030E038872F838F819885009731F02F8109
:1001E000388521303105A9F062C0A4E3B0E0E4E332
:1001F000F0E08081482F8B81282F30E081E090E073
:10020000022E02C0880F991F0A94E2F7842B8C9368
:100210004EC0A4E3B0E0E4E3F0E08081482F8B819E
:10022000282F30E081E090E0022E02C0880F991F55
:100230000A94E2F7809584238C9339C08C81282F0F
:1002400030E03E832D838D819E81009731F02D819A
:100250003E8121303105A9F02AC0A1E3B0E0E1E3FD
:10026000F0E08081482F8B81282F30E081E090E002
:10027000022E02C0880F991F0A94E2F7842B8C93F8
:1002800016C0A1E3B0E0E1E3F0E08081482F8B816C
:10029000282F30E081E090E0022E02C0880F991FE5
:1002A0000A94E2F7809584238C9301C01982898196
:1002B0002E960FB6F894DEBF0FBECDBFCF91DF9163
:1002C0000895DF93CF93CDB7DEB72F970FB6F8948D
:1002D000DEBF0FBECDBF8B836C834D8381E08A83ED
:1002E0008B81843008F013C18C81883008F00FC1F5
:1002F0008D81882321F08D81813009F008C18B81A7
:10030000282F30E03F872E878E859F85813091058D
:1003100009F450C02E853F85223031052CF48E859E
:100320009F85009771F0F4C02E853F8522303105FE
:1003300009F479C08E859F858330910509F4ADC09D
:10034000E7C08D81282F30E03D872C878C859D85E7
:100350000097C9F02C853D852130310549F5ABE387
:10036000B0E0EBE3F0E08081482F8C81282F30E073
:1003700081E090E0022E02C0880F991F0A94E2F7F4
:10038000842B8C93C5C0ABE3B0E0EBE3F0E080815D
:10039000482F8C81282F30E081E090E0022E02C0AF
:1003A000880F991F0A94E2F7809584238C93B0C03C
:1003B0001A82AEC08D81282F30E03B872A878A853C
:1003C0009B850097C9F02A853B852130310549F589
:1003D000A8E3B0E0E8E3F0E08081482F8C81282F8B
:1003E00030E081E090E0022E02C0880F991F0A944D
:1003F000E2F7842B8C938CC0A8E3B0E0E8E3F0E054
:100400008081482F8C81282F30E081E090E0022EFF
:1004100002C0880F991F0A94E2F7809584238C9379
:1004200077C01A8275C08D81282F30E039872887E0
:1004300088859985009731F02885398521303105E7
:10044000B1F029C0A5E3B0E0E5E3F0E08081482FFA
:100450008C81282F30E081E090E0022E02C0880FCE
:10046000991F0A94E2F7809584238C9351C0A5E3E9
:10047000B0E0E5E3F0E08081482F8C81282F30E068
:1004800081E090E0022E02C0880F991F0A94E2F7E3
:10049000842B8C933DC01A823BC08D81282F30E085
:1004A0003F832E838E819F81009731F02E813F8183
:1004B00021303105B1F029C0A5E3B0E0E5E3F0E07B
:1004C0008081482F8C81282F30E081E090E0022E3F
:1004D00002C0880F991F0A94E2F7809584238C93B9
:1004E00017C0A2E3B0E0E2E3F0E08081482F8C8106
:1004F000282F30E081E090E0022E02C0880F991F83
:100500000A94E2F7842B8C9303C01A8201C01982EB
:100510008A812F960FB6F894DEBF0FBECDBFCF9164
:10052000DF910895DF93CF93CDB7DEB728970FB64D
:10053000F894DEBF0FBECDBF8B836C835E834D838B
:1005400081E08A838B81843008F09FC08C81883061
:1005500008F09BC08D819E81009709F496C08B8125
:10056000282F30E038872F834F815885413051053F
:10057000A9F18F8198858230910534F42F813885D7
:100580002115310571F082C04F81588542305105E7
:1005900009F441C08F8198858330910509F458C0D2
:1005A00075C0E9E3F0E08081282F30E08C81882F4E
:1005B00090E0A90102C0559547958A95E2F7CA01D6
:1005C000817089838981882321F4ED81FE811082E5
:1005D0005DC0ED81FE8181E0808358C0E6E3F0E0FC
:1005E0008081282F30E08C81882F90E0A90102C003
:1005F000559547958A95E2F7CA018170898389816B
:10060000882321F4ED81FE81108240C0ED81FE81BE
:1006100081E080833BC0E3E3F0E08081282F30E07D
:100620008C81882F90E0A90102C0559547958A9545
:10063000E2F7CA01817089838981882321F4ED81E1
:10064000FE81108223C0ED81FE8181E080831EC087
:10065000E0E3F0E08081282F30E08C81882F90E06B
:10066000A90102C0559547958A95E2F7CA018170A4
:1006700089838981882321F4ED81FE81108206C05F
:10068000ED81FE8181E0808301C01A828A812896F3
:100690000FB6F894DEBF0FBECDBFCF91DF910895A6
:1006A000DF93CF93CDB7DEB72D970FB6F894DEBFAB
:1006B0000FBECDBF89836A838981282F30E03C87B4
:1006C0002B878B859C858130910571F12B853C852D
:1006D000223031052CF48B859C85009769F068C029
:1006E0002B853C8522303105B1F18B859C8583308B
:1006F000910509F447C05CC08A81282F30E03A8711
:10070000298789859A85009751F029853A85213076
:10071000310509F04DC0EAE3F0E0108249C0EAE398
:10072000F0E08FEF808344C08A81282F30E0388743
:100730002F838F819885009749F02F81388521304C
:100740003105B1F5E7E3F0E0108232C0E7E3F0E015
:100750008FEF80832DC08A81282F30E03E832D8348
:100760008D819E81009749F02D813E812130310598
:10077000F9F4E4E3F0E010821BC0E4E3F0E08FEF73
:10078000808316C08A81282F30E03C832B838B81A5
:100790009C81009749F02B813C812130310541F447
:1007A000E1E3F0E0108204C0E1E3F0E08FEF80834A
:1007B0002D960FB6F894DEBF0FBECDBFCF91DF915F
:1007C0000895DF93CF93CDB7DEB72D970FB6F8948A
:1007D000DEBF0FBECDBF8A836B8381E089838A81B0
:1007E000843008F080C08A81282F30E03D872C8734
:1007F0008C859D858130910571F12C853D85223058
:1008000031052CF48C859D85009769F06DC02C8591
:100810003D8522303105B9F18C859D858330910568
:1008200009F449C061C08B81282F30E03B872A87BB
:100830008A859B85009731F02A853B8521303105DB
:1008400029F052C0EBE3F0E010824EC0EBE3F0E0A1
:100850008FEF808349C08B81282F30E0398728872C
:1008600088859985009731F02885398521303105B3
:1008700029F03AC0E8E3F0E0108236C0E8E3F0E0A7
:100880008FEF808331C08B81282F30E03F832E8310
:100890008E819F81009731F02E813F81213031057B
:1008A00029F022C0E5E3F0E010821EC0E5E3F0E0AD
:1008B0008FEF808319C08B81282F30E03D832C83FC
:1008C0008C819D81009731F02C813D812130310553
:1008D00029F00AC0E2E3F0E0108206C0E2E3F0E0B3
:1008E0008FEF808301C0198289812D960FB6F8940D
:1008F000DEBF0FBECDBFCF91DF910895DF93CF93C1
:1009000000D000D000D0CDB7DEB78A837C836B8364
:1009100081E089838A81843008F03FC08B819C818B
:100920000097D9F18A81282F30E03E832D838D8175
:100930009E8181309105E1F02D813E81223031058B
:100940002CF48D819E81009761F028C02D813E811D
:1009500022303105A1F08D819E8183309105B1F067
:100960001DC0E9E3F0E08081EB81FC81808316C04B
:10097000E6E3F0E08081EB81FC8180830FC0E3E35C
:10098000F0E08081EB81FC81808308C0E0E3F0E04F
:100990008081EB81FC81808301C019828981269648
:1009A0000FB6F894DEBF0FBECDBFCF91DF91089593
:1009B000DF93CF930F92CDB7DEB782E060E040E0E7
:1009C0000E94360081E061E041E00E94610182E026
:1009D00060E09E012F5F3F4FA9010E949202898132
:1009E000813031F480E060E041E00E946101EFCFAE
:1009F00080E060E040E00E946101E9CFF894FFCF21
:00000001FF
