:100000000C942A000C9423080C9456080C9489082C
:100010000C9447000C9447000C9447000C94470044
:100020000C9447000C9447000C9447000C94470034
:100030000C9447000C9447000C9447000C94470024
:100040000C9447000C9447000C9447000C94470014
:100050000C94470011241FBECFE5D8E0DEBFCDBF12
:1000600011E0A0E6B0E0EEE0F8E402C005900D92E9
:10007000A633B107D9F711E0A6E3B1E001C01D92A4
:10008000AD33B107E1F70E94EE180C9405240C94EF
:100090000000EF92FF920F931F937B018C0120E0F1
:1000A00030E040E05FE40E94F50388238CF0C80153
:1000B000B70120E030E040E05FE40E94C1010E940F
:1000C00055049B01AC01205030404040504806C0D0
:1000D000C801B7010E9455049B01AC01B901CA01D6
:1000E0001F910F91FF90EF900895A0E0B0E0EBE733
:1000F000F0E00C94CE23DC012B01FA019C919230AC
:1001000008F439C1EB018881823008F433C194309E
:1001100069F4843009F02FC111969C91119789815F
:10012000981709F428C1A5E1B1E025C1843009F48C
:1001300021C18230A9F4923009F01DC19A01AD01AC
:1001400088E0EA010990AE01E90109929E0181501F
:10015000C1F7E201898111969C918923818308C1AD
:10016000923009F407C112962D903C901397EB0141
:100170008A819B811496AD90BD90CD90DC901797AD
:10018000EC80FD800E811F819101281B390BB90184
:1001900037FF04C066277727621B730B6032710537
:1001A0000CF061C0121613066CF537014801062EDB
:1001B00004C096948794779467940A94D2F721E0C8
:1001C00030E040E050E004C0220F331F441F551FB1
:1001D0006A95D2F721503040404050402E213F21B7
:1001E00040235123211531054105510521F021E01E
:1001F00030E040E050E079018A01E628F72808293C
:1002000019293CC0232BD1F1260E371E350146019A
:10021000062E04C096948794779467940A94D2F734
:1002200021E030E040E050E004C0220F331F441FC3
:10023000551F6A95D2F721503040404050402A2146
:100240003B214C215D21211531054105510521F04E
:1002500021E030E040E050E059016A01A628B728CB
:10026000C828D9280BC0821593052CF01C01AA249C
:10027000BB24650103C0EE24FF24870111969C91E5
:10028000D20111968C91981709F445C0992339F041
:10029000A80197012A193B094C095D0906C0A6016E
:1002A00095012E193F09400B510B57FD08C01182D3
:1002B0003382228224833583468357831DC081E0A5
:1002C00081833382228288279927DC01821B930B4A
:1002D000A40BB50B84839583A683B7830DC0220F2F
:1002E000331F441F551F24833583468357838281E0
:1002F000938101979383828324813581468157813D
:10030000DA01C9010197A109B1098F5F9F4FAF4F72
:10031000BF4328F30BC0918333822282EA0CFB1C7B
:100320000C1D1D1DE482F5820683178383E0808304
:10033000248135814681578157FF1AC0C901AA27F8
:1003400097FDA095BA2F81709070A070B0705695EF
:10035000479537952795822B932BA42BB52B848318
:100360009583A683B7838281938101969383828349
:10037000DF0101C0D201CD01CDB7DEB7E2E10C94BF
:10038000EA23A0E2B0E0E7ECF1E00C94DA23698321
:100390007A838B839C832D833E834F835887E9E048
:1003A000EE2EF12CEC0EFD1ECE010196B7010E943F
:1003B0007E058E010F5E1F4FCE010596B8010E948B
:1003C0007E058A8991E089278A8BC701B801AE0131
:1003D000475E5F4F0E9475000E94A904A096E6E068
:1003E0000C94F623A0E2B0E0E8EFF1E00C94DA23FD
:1003F00069837A838B839C832D833E834F835887C5
:10040000F9E0EF2EF12CEC0EFD1ECE010196B701A6
:100410000E947E058E010F5E1F4FCE010596B8012A
:100420000E947E05C701B801AE01475E5F4F0E9482
:1004300075000E94A904A096E6E00C94F623A0E2C1
:10044000B0E0E5E2F2E00C94CE2369837A838B83FB
:100450009C832D833E834F835887CE010196BE0136
:10046000675F7F4F0E947E05CE010596BE016F5EDD
:100470007F4F0E947E059985923088F0898982306D
:10048000C8F0943019F4823051F404C0843029F457
:10049000923081F485E191E0C6C0923049F420E0C9
:1004A0009A858A89981321E02A87CE010996BBC0D4
:1004B000823049F420E09A858A89981321E02A8BBA
:1004C000CE014196B0C02D843E844F8458886D88FB
:1004D0007E888F88988CEE24FF248701AA24BB2471
:1004E000650140E050E060E070E0E0E0F0E0C10174
:1004F00081709070892BE9F0E60CF71C081D191D1E
:100500009A01AB012A0D3B1D4C1D5D1D80E090E062
:10051000A0E0B0E0E614F7040805190520F481E036
:1005200090E0A0E0B0E0BA01A901480F591F6A1F8E
:100530007B1FAA0CBB1CCC1CDD1C97FE08C081E0F5
:1005400090E0A0E0B0E0A82AB92ACA2ADB2A3196B6
:10055000E032F10549F0660C771C881C991C569412
:10056000479437942794C3CFFA85EA892B893C892D
:100570008B859C85280F391F2E5F3F4F17C0CA01FE
:1005800081709070892B61F016950795F794E79428
:1005900080E090E0A0E0B0E8E82AF92A0A2B1B2BC3
:1005A00076956795579547952F5F3F4F77FDE7CF36
:1005B0000CC0440F551F661F771F17FD4160EE0CDE
:1005C000FF1C001F111F21503040403090E05907A0
:1005D00090E0690790E4790760F32B8F3C8FDB0193
:1005E000CA018F779070A070B07080349105A1051A
:1005F000B10561F447FD0AC0E114F10401051105DC
:1006000029F0405C5F4F6F4F7F4F40781A8EFE1786
:1006100011F081E08A8F4D8F5E8F6F8F78A383E01A
:10062000898FCE0149960E94A904A096E2E10C941C
:10063000EA23A8E1B0E0EFE1F3E00C94D62369836C
:100640007A838B839C832D833E834F835887B9E0C5
:10065000EB2EF12CEC0EFD1ECE010196B7010E948F
:100660007E058E010F5E1F4FCE010596B8010E94D8
:100670007E052985223008F47EC03989323010F495
:10068000B8017CC08A859A8989278A87243011F02D
:10069000223031F4231709F06EC065E171E06EC0BD
:1006A000343039F41D861E861F86188A1C861B86E8
:1006B00004C0323021F484E08987B7015FC02B8504
:1006C0003C858B899C89281B390B3C872B87ED84C3
:1006D000FE840F851889AD88BE88CF88D88CEA142F
:1006E000FB040C051D0540F4EE0CFF1C001F111F40
:1006F000215030403C872B8720E030E040E050E044
:1007000080E090E0A0E0B0E460E070E0EA14FB0478
:100710000C051D0540F0282B392B4A2B5B2BEA18C2
:10072000FB080C091D09B695A79597958795EE0CC2
:10073000FF1C001F111F6F5F7F4F6F31710531F775
:10074000DA01C9018F779070A070B0708034910584
:10075000A105B10561F427FD0AC0E114F10401050A
:10076000110529F0205C3F4F4F4F5F4F20782D87B8
:100770003E874F87588BBE01675F7F4FCB010E943A
:10078000A9046896EAE00C94F223A8E1B0E0EBEC4F
:10079000F3E00C94DA2369837A838B839C832D8323
:1007A0003E834F83588789E0E82EF12CEC0EFD1E26
:1007B000CE010196B7010E947E058E010F5E1F4F8C
:1007C000CE010596B8010E947E058985823040F0F1
:1007D0008989823028F0C701B8010E94F60501C05E
:1007E0008FEF6896E6E00C94F623A8E1B0E0EBEF1B
:1007F000F3E00C94DA2369837A838B839C832D83C3
:100800003E834F83588789E0E82EF12CEC0EFD1EC5
:10081000CE010196B7010E947E058E010F5E1F4F2B
:10082000CE010596B8010E947E058985823040F090
:100830008989823028F0C701B8010E94F60501C0FD
:100840008FEF6896E6E00C94F623A8E1B0E0EBE2C7
:10085000F4E00C94DA2369837A838B839C832D8361
:100860003E834F83588789E0E82EF12CEC0EFD1E65
:10087000CE010196B7010E947E058E010F5E1F4FCB
:10088000CE010596B8010E947E058985823040F030
:100890008989823028F0C701B8010E94F60501C09D
:1008A00081E06896E6E00C94F623ACE0B0E0EBE57E
:1008B000F4E00C94DE2369837A838B839C83CE01DE
:1008C0000196BE016B5F7F4F0E947E058D81823055
:1008D00061F1823050F1843021F48E81882351F10E
:1008E0002EC02F81388537FD20C06E812F31310514
:1008F0001CF06623F9F023C08EE190E0821B930B7D
:1009000029853A854B855C8504C056954795379572
:1009100027958A95D2F76623B1F05095409530958A
:1009200021953F4F4F4F5F4F0EC020E030E040E039
:1009300050E009C02FEF3FEF4FEF5FE704C020E02A
:1009400030E040E050E8B901CA012C96E2E00C9496
:10095000FA23DF92EF92FF920F931F93FC01E48042
:10096000F58006811781D1808081823048F480E053
:1009700090E0A0E1B0E0E82AF92A0A2B1B2BA5C0E1
:10098000843009F49FC0823021F4EE24FF248701D3
:1009900005C0E114F1040105110519F4E0E0F0E0EF
:1009A00096C0628173819FEF623879070CF05BC05B
:1009B00022E83FEF261B370B2A3131052CF020E0CF
:1009C00030E040E050E02AC0B801A701022E04C088
:1009D00076956795579547950A94D2F781E090E010
:1009E000A0E0B0E004C0880F991FAA1FBB1F2A9582
:1009F000D2F70197A109B1098E219F21A023B1232C
:100A00000097A105B10521F081E090E0A0E0B0E001
:100A10009A01AB01282B392B4A2B5B2BDA01C90138
:100A20008F779070A070B07080349105A105B105EA
:100A300039F427FF09C0205C3F4F4F4F5F4F04C080
:100A4000215C3F4F4F4F5F4FE0E0F0E02030A0E0EF
:100A50003A07A0E04A07A0E45A0710F0E1E0F0E00E
:100A600079018A0127C06038710564F5FB01E158FE
:100A7000FF4FD801C7018F779070A070B07080349D
:100A80009105A105B10539F4E7FE0DC080E490E0C1
:100A9000A0E0B0E004C08FE390E0A0E0B0E0E80E9A
:100AA000F91E0A1F1B1F17FF05C016950795F7941F
:100AB000E794319687E016950795F794E7948A9521
:100AC000D1F705C0EE24FF248701EFEFF0E06E2F91
:100AD000679566276795902F9F77D794DD24D794E5
:100AE0008E2F8695492F462B582F5D29B701CA01B5
:100AF0001F910F91FF90EF90DF900895FC01DB01B3
:100B0000408151812281622F6F7770E0221F22275E
:100B1000221F9381892F880F822B282F30E0991F65
:100B20009927991F11969C93119721153105A9F5C5
:100B3000411551056105710511F482E037C082E865
:100B40009FEF13969C938E9312979A01AB0167E0E7
:100B5000220F331F441F551F6A95D1F783E08C93F2
:100B60000DC0220F331F441F551F12968D919C916B
:100B70001397019713969C938E931297203080E0E1
:100B8000380780E0480780E4580758F314962D93FF
:100B90003D934D935C93179708952F3F310579F45A
:100BA000411551056105710519F484E08C93089590
:100BB00064FF03C081E08C9312C01C9210C02F57B9
:100BC000304013963C932E93129783E08C9387E0EA
:100BD000440F551F661F771F8A95D1F770641496CE
:100BE0004D935D936D937C93179708951F93DC014C
:100BF000FB019C91923008F447C08081823008F458
:100C000043C0943051F411961C91843099F5818140
:100C1000682F70E0611B71093FC0843021F0923071
:100C200031F48230B9F18181882389F12DC0119688
:100C30001C9111978230F1F081811817D9F4129626
:100C40002D913C911397828193818217930794F0A1
:100C500028173907BCF014968D919D910D90BC9189
:100C6000A02D2481358146815781281739074A07ED
:100C70005B0718F4112341F00AC082179307A407F9
:100C8000B50740F4112319F061E070E005C06FEF83
:100C90007FEF02C060E070E0CB011F910895DF9309
:100CA000CF93CDB7DEB7AFE5B0E0EFE5F0E0808100
:100CB00080688C93CF91DF910895DF93CF93CDB768
:100CC000DEB7AFE5B0E0EFE5F0E080818F778C93A1
:100CD000CF91DF910895DF93CF93CDB7DEB72B97F8
:100CE0000FB6F894DEBF0FBECDBF8A836B8381E061
:100CF00089838A81282F30E03B872A878A859B85D4
:100D00008130910509F485C02A853B852230310563
:100D100009F4F9C08A859B85009709F023C18B816E
:100D2000282F30E03987288788859985813091057B
:100D300061F128853985223031052CF48885998523
:100D4000009769F064C0288539852230310599F112
:100D5000888599858330910509F443C058C0A5E57D
:100D6000B0E0E5E5F0E0808182608C93A5E5B0E03D
:100D7000E5E5F0E0808181608C93ABE5B0E0EBE5E8
:100D8000F0E0808180648C93EEC0A5E5B0E0E5E5FD
:100D9000F0E0808182608C93A5E5B0E0E5E5F0E0CD
:100DA00080818E7F8C93ABE5B0E0EBE5F0E0808155
:100DB00080648C93D8C0A5E5B0E0E5E5F0E08081E3
:100DC0008D7F8C93A5E5B0E0E5E5F0E08081816062
:100DD0008C93ABE5B0E0EBE5F0E0808180648C9330
:100DE000C2C0A5E5B0E0E5E5F0E080818D7F8C93A1
:100DF000A5E5B0E0E5E5F0E080818E7F8C93ABE582
:100E0000B0E0EBE5F0E0808180648C93ACC01982A7
:100E1000AAC08B81282F30E03F832E838E819F8153
:100E20008130910561F12E813F81223031052CF412
:100E30008E819F81009769F064C02E813F812230AE
:100E4000310599F18E819F818330910509F443C06A
:100E500058C0A5E5B0E0E5E5F0E0808188608C93BE
:100E6000A5E5B0E0E5E5F0E0808184608C93ABE53A
:100E7000B0E0EBE5F0E0808180688C9374C0A5E57C
:100E8000B0E0E5E5F0E0808188608C93A5E5B0E016
:100E9000E5E5F0E080818B7F8C93ABE5B0E0EBE59E
:100EA000F0E0808180688C935EC0A5E5B0E0E5E568
:100EB000F0E08081877F8C93A5E5B0E0E5E5F0E088
:100EC000808184608C93ABE5B0E0EBE5F0E080815D
:100ED00080688C9348C0A5E5B0E0E5E5F0E080814E
:100EE000877F8C93A5E5B0E0E5E5F0E080818B7F1E
:100EF0008C93ABE5B0E0EBE5F0E0808180688C930B
:100F000032C0198230C08B81282F30E03D832C8382
:100F10008C819D81009731F02C813D8121303105FC
:100F200081F01EC0A5E5B0E0E5E5F0E080818064D9
:100F30008C93ABE5B0E0EBE5F0E0808180628C93D0
:100F400012C0A5E5B0E0E5E5F0E0808180648C9317
:100F5000ABE5B0E0EBE5F0E0808180628C9303C00C
:100F6000198201C0198289812B960FB6F894DEBFD1
:100F70000FBECDBFCF91DF910895DF93CF9300D007
:100F800000D0CDB7DEB78A8381E089838A81282F9C
:100F900030E03C832B838B819C818130910589F0EB
:100FA0002B813C8122303105A1F08B819C810097FF
:100FB000C1F4ABE5B0E0EBE5F0E080818F7B8C9392
:100FC00011C0ABE5B0E0EBE5F0E080818F778C936A
:100FD00009C0ABE5B0E0EBE5F0E080818F7D8C935C
:100FE00001C0198289810F900F900F900F90CF91BF
:100FF000DF910895DF93CF9300D000D00F92CDB74B
:10100000DEB78A837C836B8381E089838A81833026
:1010100088F48B819C81009769F08A81882F90E009
:10102000880F991FFC01EA5CFE4F8B819C819183A4
:10103000808301C019820F900F900F900F900F9036
:10104000CF91DF9108951F920F920FB60F92112446
:101050002F933F934F935F936F937F938F939F93C0
:10106000AF93BF93EF93FF93DF93CF93CDB7DEB7EB
:101070008091360190913701009729F0E091360177
:10108000F09137010995CF91DF91FF91EF91BF91D9
:10109000AF919F918F917F916F915F914F913F9110
:1010A0002F910F900FBE0F901F9018951F920F92C7
:1010B0000FB60F9211242F933F934F935F936F932B
:1010C0007F938F939F93AF93BF93EF93FF93DF93A0
:1010D000CF93CDB7DEB78091380190913901009759
:1010E00029F0E0913801F09139010995CF91DF9114
:1010F000FF91EF91BF91AF919F918F917F916F91F0
:101100005F914F913F912F910F900FBE0F901F90C5
:1011100018951F920F920FB60F9211242F933F93A1
:101120004F935F936F937F938F939F93AF93BF93EF
:10113000EF93FF93DF93CF93CDB7DEB780913A0162
:1011400090913B01009729F0E0913A01F0913B0129
:101150000995CF91DF91FF91EF91BF91AF919F9151
:101160008F917F916F915F914F913F912F910F9050
:101170000FBE0F901F901895DF93CF93CDB7DEB7BA
:10118000EAE3F0E08FE78083E7E3F0E080EF80833D
:10119000E4E3F0E08FEF8083E1E3F0E083E080833D
:1011A000EBE3F0E088E78083E8E3F0E08FE0808322
:1011B000E5E3F0E01082E2E3F0E084E08083CF91A9
:1011C000DF910895DF93CF93CDB7DEB72E970FB69B
:1011D000F894DEBF0FBECDBF8A836B834C8381E062
:1011E00089838A81843008F00DC18B81883008F0B2
:1011F00009C18C81882321F08C81813009F002C1E2
:101200008A81282F30E03E872D878D859E8581300D
:10121000910509F44FC02D853E85223031052CF40F
:101220008D859E85009771F0EEC02D853E8522301C
:10123000310509F477C08D859E858330910509F4C9
:10124000A9C0E1C08C81282F30E03C872B878B859B
:101250009C85009731F02B853C8521303105A9F024
:10126000D2C0AAE3B0E0EAE3F0E08081482F8B81AE
:10127000282F30E081E090E0022E02C0880F991FF5
:101280000A94E2F7842B8C93BEC0AAE3B0E0EAE3B1
:10129000F0E08081482F8B81282F30E081E090E0C2
:1012A000022E02C0880F991F0A94E2F780958423CA
:1012B0008C93A9C08C81282F30E03A8729878985B3
:1012C0009A85009731F029853A8521303105A9F0BA
:1012D0009AC0A7E3B0E0E7E3F0E08081482F8B817C
:1012E000282F30E081E090E0022E02C0880F991F85
:1012F0000A94E2F7842B8C9386C0A7E3B0E0E7E37F
:10130000F0E08081482F8B81282F30E081E090E051
:10131000022E02C0880F991F0A94E2F78095842359
:101320008C9371C08C81282F30E038872F838F8178
:101330009885009731F02F81388521303105A9F04B
:1013400062C0A4E3B0E0E4E3F0E08081482F8B8149
:10135000282F30E081E090E0022E02C0880F991F14
:101360000A94E2F7842B8C934EC0A4E3B0E0E4E34C
:10137000F0E08081482F8B81282F30E081E090E0E1
:10138000022E02C0880F991F0A94E2F780958423E9
:101390008C9339C08C81282F30E03E832D838D8142
:1013A0009E81009731F02D813E8121303105A9F0D9
:1013B0002AC0A1E3B0E0E1E3F0E08081482F8B8117
:1013C000282F30E081E090E0022E02C0880F991FA4
:1013D0000A94E2F7842B8C9316C0A1E3B0E0E1E31A
:1013E000F0E08081482F8B81282F30E081E090E071
:1013F000022E02C0880F991F0A94E2F78095842379
:101400008C9301C0198289812E960FB6F894DEBFA5
:101410000FBECDBFCF91DF910895DF93CF93CDB7AE
:10142000DEB72E970FB6F894DEBF0FBECDBF8A830E
:101430006B834C8381E089838A81843008F013C1F7
:101440008B81883008F00FC18C81882321F08C813A
:10145000813009F008C18A81282F30E03E872D872E
:101460008D859E858130910509F450C02D853E857E
:10147000223031052CF48D859E85009771F0F4C0E3
:101480002D853E852230310509F479C08D859E85F4
:101490008330910509F4ADC0E7C08C81282F30E07E
:1014A0003C872B878B859C850097C9F02B853C85D5
:1014B0002130310549F5ABE3B0E0EBE3F0E08081AA
:1014C000482F8B81282F30E081E090E0022E02C06F
:1014D000880F991F0A94E2F7842B8C93C5C0ABE365
:1014E000B0E0EBE3F0E08081482F8B81282F30E0E3
:1014F00081E090E0022E02C0880F991F0A94E2F763
:10150000809584238C93B0C01982AEC08C81282F23
:1015100030E03A87298789859A850097C9F029851F
:101520003A852130310549F5A8E3B0E0E8E3F0E081
:101530008081482F8B81282F30E081E090E0022EBF
:1015400002C0880F991F0A94E2F7842B8C938CC0F9
:10155000A8E3B0E0E8E3F0E08081482F8B81282FFA
:1015600030E081E090E0022E02C0880F991F0A94BB
:10157000E2F7809584238C9377C0198275C08C81A3
:10158000282F30E038872F838F819885009731F09E
:101590002F81388521303105B1F029C0A5E3B0E0B5
:1015A000E5E3F0E08081482F8B81282F30E081E057
:1015B00090E0022E02C0880F991F0A94E2F78095EE
:1015C00084238C9351C0A5E3B0E0E5E3F0E0808193
:1015D000482F8B81282F30E081E090E0022E02C05E
:1015E000880F991F0A94E2F7842B8C933DC01982CF
:1015F0003BC08C81282F30E03E832D838D819E81DE
:10160000009731F02D813E8121303105B1F029C0A4
:10161000A5E3B0E0E5E3F0E08081482F8B81282F3F
:1016200030E081E090E0022E02C0880F991F0A94FA
:10163000E2F7809584238C9317C0A2E3B0E0E2E345
:10164000F0E08081482F8B81282F30E081E090E00E
:10165000022E02C0880F991F0A94E2F7842B8C9304
:1016600003C0198201C0198289812E960FB6F894A1
:10167000DEBF0FBECDBFCF91DF910895DF93CF9333
:10168000CDB7DEB728970FB6F894DEBF0FBECDBF3B
:101690008B836C835E834D8381E08A838B8184306E
:1016A00008F09FC08C81883008F09BC08D819E819E
:1016B000009709F496C08B81282F30E038872F835C
:1016C0004F81588541305105A9F18F81988582302D
:1016D000910534F42F8138852115310571F082C0D0
:1016E0004F8158854230510509F441C08F8198855A
:1016F0008330910509F458C075C0E9E3F0E08081BA
:10170000282F30E08C81882F90E0A90102C05595E8
:1017100047958A95E2F7CA01817089838981882378
:1017200021F4ED81FE8110825DC0ED81FE8181E0BA
:10173000808358C0E6E3F0E08081282F30E08C8180
:10174000882F90E0A90102C0559547958A95E2F748
:10175000CA01817089838981882321F4ED81FE810A
:10176000108240C0ED81FE8181E080833BC0E3E3D5
:10177000F0E08081282F30E08C81882F90E0A90153
:1017800002C0559547958A95E2F7CA018170898311
:101790008981882321F4ED81FE81108223C0ED81AF
:1017A000FE8181E080831EC0E0E3F0E08081282F8D
:1017B00030E08C81882F90E0A90102C055954795B3
:1017C0008A95E2F7CA01817089838981882321F48F
:1017D000ED81FE81108206C0ED81FE8181E0808373
:1017E00001C01A828A8128960FB6F894DEBF0FBE18
:1017F000CDBFCF91DF910895DF93CF93CDB7DEB703
:101800002D970FB6F894DEBF0FBECDBF89836A83D4
:101810008981282F30E03D872C878C859D858130FC
:10182000910571F12C853D85223031052CF48C8594
:101830009D85009769F069C02C853D852230310572
:10184000B1F18C859D858330910509F447C05DC059
:101850008A81282F30E03B872A878A859B850097DD
:1018600051F02A853B852130310509F050C0EAE36B
:10187000F0E010824CC0EAE3F0E08FEF808347C0D5
:101880008A81282F30E039872887888599850097B5
:1018900049F02885398521303105C9F5E7E3F0E0C5
:1018A000108235C0E7E3F0E08FEF808330C08A819B
:1018B000282F30E03F832E838E819F81009749F04F
:1018C0002E813F812130310511F5E4E3F0E01082F3
:1018D0001EC0E4E3F0E08FEF808319C08A81282FD7
:1018E00030E03D832C838C819D81009749F02C81D1
:1018F0003D812130310559F4E1E3F0E0108207C069
:10190000E1E3F0E08FEF808302C01B8202C031E090
:101910003B838B812D960FB6F894DEBF0FBECDBFF3
:10192000CF91DF910895DF93CF9300D000D00F9235
:10193000CDB7DEB789836A838981282F30E03D8364
:101940002C838C819D8181309105D1F02C813D814A
:10195000223031052CF48C819D81009761F01FC0ED
:101960002C813D812230310581F08C819D81833035
:10197000910581F014C0EBE3F0E08A81808311C00F
:10198000E8E3F0E08A8180830CC0E5E3F0E08A813F
:10199000808307C0E2E3F0E08A81808302C01B827B
:1019A00002C091E09B838B810F900F900F900F905E
:1019B0000F90CF91DF910895DF93CF9300D000D0A7
:1019C00000D0CDB7DEB78A837C836B8381E08983C7
:1019D0008A81843008F03FC08B819C810097D9F1C7
:1019E0008A81282F30E03E832D838D819E81813036
:1019F0009105E1F02D813E81223031052CF48D815D
:101A00009E81009761F028C02D813E8122303105F2
:101A1000A1F08D819E8183309105B1F01DC0E9E375
:101A2000F0E08081EB81FC81808316C0E6E3F0E08A
:101A30008081EB81FC8180830FC0E3E3F0E0808153
:101A4000EB81FC81808308C0E0E3F0E08081EB81E2
:101A5000FC81808301C01982898126960FB6F89493
:101A6000DEBF0FBECDBFCF91DF910895DF93CF933F
:101A7000CDB7DEB7E8970FB6F894DEBF0FBECDBF87
:101A800083E064E040E00E940D0A83E065E041E00D
:101A90000E940D0A83E066E041E00E940D0A83E0A7
:101AA00067E041E00E940D0A80E090E0A0E2B1E42E
:101AB0008DAB9EABAFABB8AF6DA97EA98FA998AD2A
:101AC00020E030E04AEF54E40E941F02DC01CB0129
:101AD00089AB9AABABABBCAB69A97AA98BA99CA922
:101AE00020E030E040E85FE30E94250488232CF4E6
:101AF00081E090E098AB8FA73FC069A97AA98BA934
:101B00009CA920E03FEF4FE757E40E94C503181659
:101B10004CF56DA97EA98FA998AD20E030E040E298
:101B200051E40E941F02DC01CB01BC01CD010E94E7
:101B30004900DC01CB0198AB8FA70FC088EC90E087
:101B40009EA78DA78DA59EA50197F1F79EA78DA7AE
:101B50008FA598A9019798AB8FA78FA598A90097F3
:101B600069F714C069A97AA98BA99CA90E944900A8
:101B7000DC01CB0198AB8FA78FA598A99CA78BA759
:101B80008BA59CA50197F1F79CA78BA783E064E048
:101B900041E00E940D0A83E065E040E00E940D0AEA
:101BA00083E066E041E00E940D0A83E067E041E0E7
:101BB0000E940D0A80E090E0A0E2B1E48FA398A714
:101BC000A9A7BAA76FA178A589A59AA520E030E0BA
:101BD0004AEF54E40E941F02DC01CB018BA39CA3BB
:101BE000ADA3BEA36BA17CA18DA19EA120E030E09E
:101BF00040E85FE30E94250488232CF481E090E014
:101C00009AA389A33FC06BA17CA18DA19EA120E0D6
:101C10003FEF4FE757E40E94C50318164CF56FA13C
:101C200078A589A59AA520E030E040E251E40E9421
:101C30001F02DC01CB01BC01CD010E944900DC0187
:101C4000CB019AA389A30FC088EC90E098A38F8F53
:101C50008F8D98A10197F1F798A38F8F89A19AA1F1
:101C600001979AA389A389A19AA1009769F714C043
:101C70006BA17CA18DA19EA10E944900DC01CB013A
:101C80009AA389A389A19AA19E8F8D8F8D8D9E8DF8
:101C90000197F1F79E8F8D8F83E064E041E00E9411
:101CA0000D0A83E065E041E00E940D0A83E066E0F2
:101CB00040E00E940D0A83E067E041E00E940D0AC7
:101CC00080E090E0A0E2B1E4898F9A8FAB8FBC8F67
:101CD000698D7A8D8B8D9C8D20E030E04AEF54E445
:101CE0000E941F02DC01CB018D8B9E8BAF8BB88FC6
:101CF0006D897E898F89988D20E030E040E85FE330
:101D00000E94250488232CF481E090E09C8B8B8B2F
:101D10003FC06D897E898F89988D20E03FEF4FE726
:101D200057E40E94C50318164CF5698D7A8D8B8D8A
:101D30009C8D20E030E040E251E40E941F02DC0173
:101D4000CB01BC01CD010E944900DC01CB019C8B81
:101D50008B8B0FC088EC90E09A8B898B89899A894C
:101D60000197F1F79A8B898B8B899C8901979C8BC2
:101D70008B8B8B899C89009769F714C06D897E894C
:101D80008F89988D0E944900DC01CB019C8B8B8B45
:101D90008B899C89988B8F878F8598890197F1F71C
:101DA000988B8F8783E064E041E00E940D0A83E016
:101DB00065E041E00E940D0A83E066E041E00E9498
:101DC0000D0A83E067E040E00E940D0A80E090E0A9
:101DD000A0E2B1E48B879C87AD87BE876B857C854D
:101DE0008D859E8520E030E04AEF54E40E941F027A
:101DF000DC01CB018F839887A987BA876F817885AB
:101E000089859A8520E030E040E85FE30E94250460
:101E100088232CF481E090E09E838D833FC06F8106
:101E2000788589859A8520E03FEF4FE757E40E9447
:101E3000C50318164CF56B857C858D859E8520E045
:101E400030E040E251E40E941F02DC01CB01BC0102
:101E5000CD010E944900DC01CB019E838D830FC020
:101E600088EC90E09C838B838B819C810197F1F7B8
:101E70009C838B838D819E8101979E838D838D8131
:101E80009E81009769F714C06F81788589859A854E
:101E90000E944900DC01CB019E838D838D819E8150
:101EA0009A83898389819A810197F1F79A8389833B
:101EB00081E0E8960FB6F894DEBF0FBECDBFCF919C
:101EC000DF910895DF93CF93CDB7DEB7E8970FB6D4
:101ED000F894DEBF0FBECDBF83E064E041E00E9416
:101EE0000D0A83E065E041E00E940D0A83E066E0B0
:101EF00041E00E940D0A83E067E040E00E940D0A85
:101F000080E090E0A0E2B1E48DAB9EABAFABB8AFA8
:101F10006DA97EA98FA998AD20E030E04AEF54E486
:101F20000E941F02DC01CB0189AB9AABABABBCAB0F
:101F300069A97AA98BA99CA920E030E040E85FE379
:101F40000E94250488232CF481E090E098AB8FA7B1
:101F50003FC069A97AA98BA99CA920E03FEF4FE770
:101F600057E40E94C50318164CF56DA97EA98FA9E8
:101F700098AD20E030E040E251E40E941F02DC0115
:101F8000CB01BC01CD010E944900DC01CB0198AB23
:101F90008FA70FC088EC90E09EA78DA78DA59EA56A
:101FA0000197F1F79EA78DA78FA598A9019798ABE8
:101FB0008FA78FA598A9009769F714C069A97AA976
:101FC0008BA99CA90E944900DC01CB0198AB8FA78B
:101FD0008FA598A99CA78BA78BA59CA50197F1F726
:101FE0009CA78BA783E064E041E00E940D0A83E098
:101FF00065E041E00E940D0A83E066E040E00E9457
:102000000D0A83E067E041E00E940D0A80E090E065
:10201000A0E2B1E48FA398A7A9A7BAA76FA178A55A
:1020200089A59AA520E030E04AEF54E40E941F02FF
:10203000DC01CB018BA39CA3ADA3BEA36BA17CA1B0
:102040008DA19EA120E030E040E85FE30E942504DE
:1020500088232CF481E090E09AA389A33FC06BA170
:102060007CA18DA19EA120E03FEF4FE757E40E94A5
:10207000C50318164CF56FA178A589A59AA520E08F
:1020800030E040E251E40E941F02DC01CB01BC01C0
:10209000CD010E944900DC01CB019AA389A30FC0A6
:1020A00088EC90E098A38F8F8F8D98A10197F1F71E
:1020B00098A38F8F89A19AA101979AA389A389A137
:1020C0009AA1009769F714C06BA17CA18DA19EA174
:1020D0000E944900DC01CB019AA389A389A19AA19E
:1020E0009E8F8D8F8D8D9E8D0197F1F79E8F8D8F99
:1020F00083E064E041E00E940D0A83E065E040E097
:102100000E940D0A83E066E041E00E940D0A83E030
:1021100067E041E00E940D0A80E090E0A0E2B1E4B7
:10212000898F9A8FAB8FBC8F698D7A8D8B8D9C8DAB
:1021300020E030E04AEF54E40E941F02DC01CB01B2
:102140008D8B9E8BAF8BB88F6D897E898F89988D93
:1021500020E030E040E85FE30E94250488232CF46F
:1021600081E090E09C8B8B8B3FC06D897E898F894D
:10217000988D20E03FEF4FE757E40E94C503181603
:102180004CF5698D7A8D8B8D9C8D20E030E040E29E
:1021900051E40E941F02DC01CB01BC01CD010E9471
:1021A0004900DC01CB019C8B8B8B0FC088EC90E04D
:1021B0009A8B898B89899A890197F1F79A8B898BF8
:1021C0008B899C8901979C8B8B8B8B899C89009731
:1021D00069F714C06D897E898F89988D0E944900A6
:1021E000DC01CB019C8B8B8B8B899C89988B8F8797
:1021F0008F8598890197F1F7988B8F8783E064E04A
:1022000040E00E940D0A83E065E041E00E940D0A73
:1022100083E066E041E00E940D0A83E067E041E070
:102220000E940D0A80E090E0A0E2B1E48B879C87D9
:10223000AD87BE876B857C858D859E8520E030E0EF
:102240004AEF54E40E941F02DC01CB018F83988780
:10225000A987BA876F81788589859A8520E030E0E3
:1022600040E85FE30E94250488232CF481E090E09D
:102270009E838D833FC06F81788589859A8520E014
:102280003FEF4FE757E40E94C50318164CF56B85E6
:102290007C858D859E8520E030E040E251E40E94FF
:1022A0001F02DC01CB01BC01CD010E944900DC0111
:1022B000CB019E838D830FC088EC90E09C838B8341
:1022C0008B819C810197F1F79C838B838D819E810B
:1022D00001979E838D838D819E81009769F714C03D
:1022E0006F81788589859A850E944900DC01CB0140
:1022F0009E838D838D819E819A83898389819A8132
:102300000197F1F79A83898381E0E8960FB6F894F4
:10231000DEBF0FBECDBFCF91DF910895DF93CF9386
:10232000CDB7DEB72E970FB6F894DEBF0FBECDBF88
:1023300083E064E041E00E940D0A83E065E041E053
:102340000E940D0A83E066E041E00E940D0A83E0EE
:1023500067E041E00E940D0A80E090E0A0E2B1E475
:102360008B879C87AD87BE876B857C858D859E8599
:1023700020E030E04AEF54E40E941F02DC01CB0170
:102380008F839887A987BA876F81788589859A8591
:1023900020E030E040E85FE30E94250488232CF42D
:1023A00081E090E09E838D833FC06F817885898531
:1023B0009A8520E03FEF4FE757E40E94C5031816C7
:1023C0004CF56B857C858D859E8520E030E040E274
:1023D00051E40E941F02DC01CB01BC01CD010E942F
:1023E0004900DC01CB019E838D830FC088EC90E017
:1023F0009C838B838B819C810197F1F79C838B83DA
:102400008D819E8101979E838D838D819E81009712
:1024100069F714C06F81788589859A850E94490083
:10242000DC01CB019E838D838D819E819A8389837C
:1024300089819A810197F1F79A83898381E02E96A9
:102440000FB6F894DEBF0FBECDBFCF91DF910895D8
:102450000F931F93DF93CF93CDB7DEB7CC54D0400B
:102460000FB6F894DEBF0FBECDBFFE01E75BFF4F96
:1024700080E090E0ACE0B2E480839183A283B383F8
:102480008E010B5B1F4FFE01E75BFF4F6081718187
:102490008281938120E030E04AEF54E40E941F02E1
:1024A000DC01CB01F80180839183A283B383FE0119
:1024B000EB5BFF4F608171818281938120E030E08E
:1024C00040E85FE30E942504882344F4FE01ED5BAD
:1024D000FF4F81E090E09183808364C0FE01EB5B5D
:1024E000FF4F608171818281938120E03FEF4FE750
:1024F00057E40E94C50318160CF043C0FE01E75BC9
:10250000FF4F608171818281938120E030E040E261
:1025100051E40E941F02DC01CB018E010D5B1F4FB5
:10252000BC01CD010E944900DC01CB01F80191837F
:1025300080831FC0FE01EF5BFF4F88EC90E091832A
:102540008083FE01EF5BFF4F808191810197F1F75E
:10255000FE01EF5BFF4F91838083DE01AD5BBF4FD8
:10256000FE01ED5BFF4F80819181019711969C9355
:102570008E93FE01ED5BFF4F808191810097D1F634
:1025800024C08E010D5B1F4FFE01EB5BFF4F60818E
:102590007181828193810E944900DC01CB01F801A5
:1025A00091838083FE01ED5BFF4F80819181FE016D
:1025B000FF9691838083FE01FF9680819181019730
:1025C000F1F7FE01FF969183808388E30E94EB146C
:1025D00080E090E0A0E2B2E48BAF9CAFADAFBEAFC5
:1025E0006BAD7CAD8DAD9EAD2BEA3AEA4AE250E48C
:1025F0000E941F02DC01CB018FAB98AFA9AFBAAF2D
:102600006FA978AD89AD9AAD20E030E040E85FE396
:102610000E94250488231CF481E08EAB91C06FA931
:1026200078AD89AD9AAD20E030E04FE753E40E94E9
:10263000C50318160CF07BC06BAD7CAD8DAD9EADA7
:1026400020E030E04AE754E40E941903DC01CB01AA
:102650008AAB9BABACABBDAB6AA97BA98CA99DA98E
:1026600020E030E04AEF54E40E941F02DC01CB017D
:102670008EA79FA7A8ABB9AB6EA57FA588A999A97E
:1026800020E030E040E85FE30E94250488232CF43A
:1026900081E090E09DA78CA73FC06EA57FA588A98B
:1026A00099A920E03FEF4FE757E40E94C5031816B1
:1026B0004CF56AA97BA98CA99DA920E030E040E2F5
:1026C00051E40E941F02DC01CB01BC01CD010E943C
:1026D0004900DC01CB019DA78CA70FC088EC90E0DE
:1026E0009BA78AA78AA59BA50197F1F79BA78AA715
:1026F0008CA59DA501979DA78CA78CA59DA500974E
:1027000069F724C06EA57FA588A999A90E944900F0
:10271000DC01CB019DA78CA78CA59DA599A788A7B7
:1027200088A599A50197F1F799A788A70FC06FA968
:1027300078AD89AD9AAD0E944900DC01CB018EAB2A
:102740008EA98FA38FA18A95F1F78FA38FE00E94A6
:10275000EB1480E090E0A0E2B2E48BA39CA3ADA3D5
:10276000BEA36BA17CA18DA19EA12BEA3AEA4AE20D
:1027700050E40E941F02DC01CB018F8F98A3A9A314
:10278000BAA36F8D78A189A19AA120E030E040E83A
:102790005FE30E94250488231CF481E08E8F91C0A2
:1027A0006F8D78A189A19AA120E030E04FE753E432
:1027B0000E94C50318160CF07BC06BA17CA18DA1F3
:1027C0009EA120E030E04AE754E40E941903DC01B6
:1027D000CB018A8F9B8FAC8FBD8F6A8D7B8D8C8D4B
:1027E0009D8D20E030E04AEF54E40E941F02DC019E
:1027F000CB018E8B9F8BA88FB98F6E897F89888D37
:10280000998D20E030E040E85FE30E9425048823B2
:102810002CF481E090E09D8B8C8B3FC06E897F898A
:10282000888D998D20E03FEF4FE757E40E94C50364
:1028300018164CF56A8D7B8D8C8D9D8D20E030E0D7
:1028400040E251E40E941F02DC01CB01BC01CD013A
:102850000E944900DC01CB019D8B8C8B0FC088EC62
:1028600090E09B8B8A8B8A899B890197F1F79B8BE0
:102870008A8B8C899D8901979D8B8C8B8C899D89F6
:10288000009769F724C06E897F89888D998D0E9491
:102890004900DC01CB019D8B8C8B8C899D89998BA8
:1028A000888B888999890197F1F7998B888B0FC05C
:1028B0006F8D78A189A19AA10E944900DC01CB010A
:1028C0008E8F8E8D8F878F858A95F1F78F8781E028
:1028D0000E94EB1480E090E0A0E0B0E48B879C873E
:1028E000AD87BE876B857C858D859E8520E030E039
:1028F0004AEF54E40E941F02DC01CB018F839887CA
:10290000A987BA876F81788589859A8520E030E02C
:1029100040E85FE30E94250488232CF481E090E0E6
:102920009E838D833FC06F81788589859A8520E05D
:102930003FEF4FE757E40E94C50318164CF56B852F
:102940007C858D859E8520E030E040E251E40E9448
:102950001F02DC01CB01BC01CD010E944900DC015A
:10296000CB019E838D830FC088EC90E09C838B838A
:102970008B819C810197F1F79C838B838D819E8154
:1029800001979E838D838D819E81009769F714C086
:102990006F81788589859A850E944900DC01CB0189
:1029A0009E838D838D819E819A83898389819A817B
:1029B0000197F1F79A83898386E00E94EB14C45B48
:1029C000DF4F0FB6F894DEBF0FBECDBFCF91DF91C2
:1029D0001F910F910895DF93CF93CDB7DEB769971D
:1029E0000FB6F894DEBF0FBECDBF898F80E060E0E8
:1029F00040E00E940D0A80E061E040E00E940D0A84
:102A000082E0698D0E94930C80E062E041E00E94C8
:102A10000D0A80E090E0A0E8BFE38D8B9E8BAF8B2A
:102A2000B88F6D897E898F89988D2BEA3AEA4AE2C0
:102A300050E40E941F02DC01CB01898B9A8BAB8B87
:102A4000BC8B69897A898B899C8920E030E040E8D9
:102A50005FE30E94250488231CF481E0888B91C0E9
:102A600069897A898B899C8920E030E04FE753E4BB
:102A70000E94C50318160CF07BC06D897E898F8972
:102A8000988D20E030E04AE754E40E941903DC010D
:102A9000CB018C879D87AE87BF876C857D858E85B2
:102AA0009F8520E030E04AEF54E40E941F02DC01E1
:102AB000CB0188879987AA87BB87688579858A85AE
:102AC0009B8520E030E040E85FE30E9425048823F6
:102AD0002CF481E090E09F838E833FC068857985E8
:102AE0008A859B8520E03FEF4FE757E40E94C503AE
:102AF00018164CF56C857D858E859F8520E030E02D
:102B000040E251E40E941F02DC01CB01BC01CD0177
:102B10000E944900DC01CB019F838E830FC088ECAB
:102B200090E09D838C838C819D810197F1F79D833B
:102B30008C838E819F8101979F838E838E819F815D
:102B4000009769F724C0688579858A859B850E94EE
:102B50004900DC01CB019F838E838E819F819B8303
:102B60008A838A819B810197F1F79B838A830FC0B7
:102B700069897A898B899C890E944900DC01CB0193
:102B8000888B8889898389818A95F1F7898380E098
:102B900062E040E00E940D0A69960FB6F894DEBF2D
:102BA0000FBECDBFCF91DF910895DF93CF93CDB707
:102BB000DEB769970FB6F894DEBF0FBECDBF898F21
:102BC00080E060E041E00E940D0A80E061E040E0CA
:102BD0000E940D0A82E0698D0E94930C80E062E001
:102BE00041E00E940D0A80E090E0A0E8BFE38D8BF9
:102BF0009E8BAF8BB88F6D897E898F89988D2BEADC
:102C00003AEA4AE250E40E941F02DC01CB01898BC0
:102C10009A8BAB8BBC8B69897A898B899C8920E0E4
:102C200030E040E85FE30E94250488231CF481E043
:102C3000888B91C069897A898B899C8920E030E0F2
:102C40004FE753E40E94C50318160CF07BC06D8952
:102C50007E898F89988D20E030E04AE754E40E9415
:102C60001903DC01CB018C879D87AE87BF876C85FC
:102C70007D858E859F8520E030E04AEF54E40E94F8
:102C80001F02DC01CB0188879987AA87BB876885EB
:102C900079858A859B8520E030E040E85FE30E94EB
:102CA000250488232CF481E090E09F838E833FC02D
:102CB000688579858A859B8520E03FEF4FE757E45B
:102CC0000E94C50318164CF56C857D858E859F8501
:102CD00020E030E040E251E40E941F02DC01CB0121
:102CE000BC01CD010E944900DC01CB019F838E8392
:102CF0000FC088EC90E09D838C838C819D8101972F
:102D0000F1F79D838C838E819F8101979F838E83B2
:102D10008E819F81009769F724C0688579858A85AF
:102D20009B850E944900DC01CB019F838E838E81AD
:102D30009F819B838A838A819B810197F1F79B8383
:102D40008A830FC069897A898B899C890E9449008E
:102D5000DC01CB01888B8889898389818A95F1F789
:102D6000898380E062E040E00E940D0A69960FB618
:102D7000F894DEBF0FBECDBFCF91DF910895DF93F2
:102D8000CF9300D000D00F92CDB7DEB78A836B838C
:102D900081E089838B818832E0F48A81282F30E0BA
:102DA0003D832C838C819D818130910531F02C8174
:102DB0003D812230310531F00AC08B8180580E945C
:102DC000EB1408C08B8180540E94EB1403C019825D
:102DD00001C0198289810F900F900F900F900F9072
:102DE000CF91DF910895DF93CF9300D00F92CDB7AD
:102DF000DEB79B838A8319820EC08981282F30E039
:102E00008A819B81FC01E20FF31F80810E94D5150E
:102E100089818F5F89838981282F30E08A819B8116
:102E2000FC01E20FF31F8081882339F781E00F90C6
:102E30000F900F90CF91DF910895DF93CF93CDB78F
:102E4000DEB765970FB6F894DEBF0FBECDBF9D8B82
:102E50008C8B81E08A8B1F868C899D89009709F471
:102E6000F0C0EC89FD898FEF8083198AE5C08989DC
:102E7000882F90E0FC01E35DFE4F908180E0692F98
:102E800040E00E940D0A188AC1C08889882F90E00E
:102E9000FC01EF5CFE4F90819E012D5E3F4F81E073
:102EA000692FA9010E943E0B8B89882309F0ABC0D2
:102EB00080E090E0A0EAB1E48B879C87AD87BE8775
:102EC0006B857C858D859E8520E030E04AEF54E45B
:102ED0000E941F02DC01CB018F839887A987BA87E4
:102EE0006F81788589859A8520E030E040E85FE34E
:102EF0000E94250488232CF481E090E09E838D833A
:102F00003FC06F81788589859A8520E03FEF4FE744
:102F100057E40E94C50318164CF56B857C858D859A
:102F20009E8520E030E040E251E40E941F02DC0177
:102F3000CB01BC01CD010E944900DC01CB019E8385
:102F40008D830FC088EC90E09C838B838B819C8168
:102F50000197F1F79C838B838D819E8101979E83DE
:102F60008D838D819E81009769F714C06F8178856C
:102F700089859A850E944900DC01CB019E838D835F
:102F80008D819E819A83898389819A810197F1F746
:102F90009A8389838889882F90E0FC01EF5CFE4F3B
:102FA00090819E012D5E3F4F81E0692FA9010E9413
:102FB0003E0B0FC08889882F90E0FC01EF5CFE4F2C
:102FC00090819E012D5E3F4F81E0692FA9010E94F3
:102FD0003E0B8B89882371F38989482F50E08889BB
:102FE000282F30E0CA01880F991F880F991F820F80
:102FF000931FFC01E35EFE4F8081EC89FD89808395
:1030000081E08F8707C088898F5F888B88898430AB
:1030100008F43BCF8989882F90E0FC01E35DFE4FE7
:10302000908180E0692F41E00E940D0A8F858130F8
:1030300049F089898F5F898B8989843008F417CF9B
:1030400001C01A8A8A8965960FB6F894DEBF0FBE52
:10305000CDBFCF91DF910895DF93CF93CDB7DEB78A
:1030600081E064E041E00E940D0A81E065E040E01B
:103070000E940D0A81E0CF91DF910895DF93CF93F5
:10308000CDB7DEB781E064E040E00E940D0A81E048
:1030900065E041E00E940D0A81E0CF91DF91089543
:1030A000DF93CF93CDB7DEB781E064E040E00E94CC
:1030B0000D0A81E065E040E00E940D0A81E0CF91B9
:1030C000DF910895DF93CF93CDB7DEB781E064E061
:1030D00041E00E940D0A81E065E041E00E940D0A96
:1030E00081E066E040E00E940D0A81E067E040E098
:1030F0000E940D0A81E0CF91DF910895DF93CF9375
:10310000CDB7DEB781E064E040E00E940D0A81E0C7
:1031100065E040E00E940D0A81E066E041E00E9427
:103120000D0A81E067E041E00E940D0A81E0CF9145
:10313000DF910895DF93CF93CDB7DEB781E064E0F0
:1031400040E00E940D0A81E065E040E00E940D0A27
:1031500081E066E040E00E940D0A81E067E040E027
:103160000E940D0A81E0CF91DF910895DF93CF9304
:1031700000D0CDB7DEB79A83898389819A810E9476
:103180001D17E981FA818081813351F0E981FA814B
:103190008081823329F0E981FA818081833369F764
:1031A0000F900F90CF91DF910895DF93CF930F92FF
:1031B000CDB7DEB781E0898383E062E09E012F5FB7
:1031C0003F4FA9010E943E0B8981882319F481E0B9
:1031D00080933C010F90CF91DF9108950F931F933F
:1031E000DF93CF93CDB7DEB7CC5DD0400FB6F89468
:1031F000DEBF0FBECDBF81E00E94EB14FE01E153A4
:10320000FF4F80E090E0A0E0B0E480839183A28350
:10321000B3838E0105531F4FFE01E153FF4F6081C1
:1032200071818281938120E030E04AEF54E40E9472
:103230001F02DC01CB01F80180839183A283B38359
:10324000FE01E553FF4F608171818281938120E00F
:1032500030E040E85FE30E942504882344F4FE0147
:10326000E753FF4F81E090E09183808364C0FE01CB
:10327000E553FF4F608171818281938120E03FEFB0
:103280004FE757E40E94C50318160CF043C0FE0137
:10329000E153FF4F608171818281938120E030E0B2
:1032A00040E251E40E941F02DC01CB018E01075372
:1032B0001F4FBC01CD010E944900DC01CB01F80188
:1032C000918380831FC0FE01E953FF4F88EC90E09B
:1032D00091838083FE01E953FF4F808191810197A3
:1032E000F1F7FE01E953FF4F91838083DE01A7537D
:1032F000BF4FFE01E753FF4F8081918101971196E7
:103300009C938E93FE01E753FF4F8081918100973C
:10331000D1F627C08E0107531F4FFE01E553FF4F23
:1033200060817181828193810E944900DC01CB011F
:10333000F80191838083DE01AB53BF4FFE01E75359
:10334000FF4F808191818D939C93FE01EB53FF4F42
:10335000808191810197F1F7FE01EB53FF4F91833B
:103360008083FE01E952FF4F1082FE01EA52FF4FB7
:103370001082FE01EB52FF4F10820E94BC080E9497
:1033800028120E944F0625ED38E180E0B9010E9425
:10339000FA0780E062E00E946B0680E690E00E94FF
:1033A000F31682E060E00E94BF1681E790E00E9481
:1033B000F31680913C018130E1F781E00E94EB142B
:1033C000FE01EF53FF4F80E090E0A0E0B0E4808387
:1033D0009183A283B3838E0103541F4FFE01EF53E9
:1033E000FF4F608171818281938120E030E04AEF5C
:1033F00054E40E941F02DC01CB01F8018083918319
:10340000A283B383FE01E354FF4F60817181828107
:10341000938120E030E040E85FE30E9425048823A8
:1034200044F4FE01E554FF4F81E090E091838083F6
:1034300064C0FE01E354FF4F6081718182819381FA
:1034400020E03FEF4FE757E40E94C50318160CF049
:1034500043C0FE01EF53FF4F6081718182819381F0
:1034600020E030E040E251E40E941F02DC01CB0189
:103470008E0105541F4FBC01CD010E944900DC01A3
:10348000CB01F801918380831FC0FE01E754FF4FF9
:1034900088EC90E091838083FE01E754FF4F8081A8
:1034A00091810197F1F7FE01E754FF4F91838083EB
:1034B000DE01A554BF4FFE01E554FF4F808191818D
:1034C000019711969C938E93FE01E554FF4F8081E6
:1034D00091810097D1F627C08E0105541F4FFE0140
:1034E000E354FF4F60817181828193810E94490082
:1034F000DC01CB01F80191838083DE01A954BF4F29
:10350000FE01E554FF4F808191818D939C93FE01D4
:10351000E954FF4F808191810197F1F7FE01E95451
:10352000FF4F9183808381E060E00E94BF168AE7AD
:1035300090E00E94F31682E060E00E94BF16CE0188
:1035400088529F4F0E941D17FE01E852FF4F808155
:103550008F3F31F18AE20E94D515DE01AA52BF4F9A
:10356000FE01EA52FF4F80818F5F8C93FE01EB5288
:10357000FF4F8081282F30E0FE01E852FF4F40814D
:10358000CE0187529F4FFC01E20FF31F4083DE0103
:10359000AB52BF4FFE01EB52FF4F80818F5F8C9388
:1035A000FE01EA52FF4F8081833049F6FE01ED5261
:1035B000FF4F1182108229C0FE01ED52FF4F808122
:1035C0009181FC01EF5EFE4F4081FE01ED52FF4F05
:1035D00020813181CE0187529F4FFC01E20FF31F02
:1035E0008081481731F0FE01E952FF4F81E080836E
:1035F00014C0DE01AD52BF4FFE01ED52FF4F80817E
:103600009181019611969C938E93FE01ED52FF4F8E
:1036100080819181833091057CF2FE01E952FF4F58
:103620008081882309F448C2FE01EB52FF4F1082CB
:10363000FE01EA52FF4F1082FE01E952FF4F108255
:1036400081E00E94EB14FE01ED54FF4F80E090E01A
:10365000A0E0B0E480839183A283B3838E010155FF
:103660001F4FFE01ED54FF4F608171818281938174
:1036700020E030E04AEF54E40E941F02DC01CB015D
:10368000F80180839183A283B383FE01E155FF4F4C
:10369000608171818281938120E030E040E85FE3C6
:1036A0000E942504882344F4FE01E355FF4F81E086
:1036B00090E09183808364C0FE01E155FF4F6081FB
:1036C00071818281938120E03FEF4FE757E40E94B0
:1036D000C50318160CF043C0FE01ED54FF4F608186
:1036E00071818281938120E030E040E251E40E94C8
:1036F0001F02DC01CB018E0103551F4FBC01CD0120
:103700000E944900DC01CB01F801918380831FC036
:10371000FE01E555FF4F88EC90E091838083FE0128
:10372000E555FF4F808191810197F1F7FE01E55545
:10373000FF4F91838083DE01A355BF4FFE01E35508
:10374000FF4F80819181019711969C938E93FE018A
:10375000E355FF4F808191810097D1F627C08E01FC
:1037600003551F4FFE01E155FF4F6081718182813A
:1037700093810E944900DC01CB01F8019183808391
:10378000DE01A755BF4FFE01E355FF4F80819181B8
:103790008D939C93FE01E755FF4F808191810197A6
:1037A000F1F7FE01E755FF4F9183808381E060E0F0
:1037B0000E94BF168AE890E00E94F31682E060E063
:1037C0000E94BF1689E990E00E94F316FE01EB55B6
:1037D000FF4F80E090E4ACE1B5E480839183A28365
:1037E000B3838E010F551F4FFE01EB55FF4F6081D4
:1037F00071818281938120E030E04AEF54E40E949D
:103800001F02DC01CB01F80180839183A283B38383
:10381000FE01EF55FF4F608171818281938120E02D
:1038200030E040E85FE30E942504882344F4FE0171
:10383000E156FF4F81E090E09183808364C0FE01F8
:10384000EF55FF4F608171818281938120E03FEFCE
:103850004FE757E40E94C50318160CF043C0FE0161
:10386000EB55FF4F608171818281938120E030E0D0
:1038700040E251E40E941F02DC01CB018E0101569F
:103880001F4FBC01CD010E944900DC01CB01F801B2
:10389000918380831FC0FE01E356FF4F88EC90E0C8
:1038A00091838083FE01E356FF4F808191810197D0
:1038B000F1F7FE01E356FF4F91838083DE01A156AD
:1038C000BF4FFE01E156FF4F808191810197119614
:1038D0009C938E93FE01E156FF4F8081918100976A
:1038E000D1F627C08E0101561F4FFE01EF55FF4F45
:1038F00060817181828193810E944900DC01CB014A
:10390000F80191838083DE01A556BF4FFE01E15689
:10391000FF4F808191818D939C93FE01E556FF4F6F
:10392000808191810197F1F7FE01E556FF4F918368
:10393000808381E00E94EB14FE01E956FF4F80E096
:1039400090E0A0E0B0E480839183A283B3838E01F2
:103950000D561F4FFE01E956FF4F60817181828134
:10396000938120E030E04AEF54E40E941F02DC0122
:10397000CB01F80180839183A283B383FE01ED56CE
:10398000FF4F608171818281938120E030E040E8C7
:103990005FE30E942504882344F4FE01EF56FF4FA5
:1039A00081E090E09183808364C0FE01ED56FF4F7B
:1039B000608171818281938120E03FEF4FE757E47E
:1039C0000E94C50318160CF043C0FE01E956FF4FD4
:1039D000608171818281938120E030E040E251E496
:1039E0000E941F02DC01CB018E010F561F4FBC014C
:1039F000CD010E944900DC01CB01F8019183808355
:103A00001FC0FE01E157FF4F88EC90E09183808357
:103A1000FE01E157FF4F808191810197F1F7FE018F
:103A2000E157FF4F91838083DE01AF56BF4FFE0108
:103A3000EF56FF4F80819181019711969C938E9351
:103A4000FE01EF56FF4F808191810097D1F627C08C
:103A50008E010F561F4FFE01ED56FF4F60817181A1
:103A6000828193810E944900DC01CB01F80191839E
:103A70008083DE01A357BF4FFE01EF56FF4F8081C9
:103A800091818D939C93FE01E357FF4F808191813B
:103A90000197F1F7FE01E357FF4F9183808381E0A7
:103AA00060E00E94BF168AE790E00E94F31682E071
:103AB00060E00E94BF1643CD81E00E94EB14FE013E
:103AC000E757FF4F80E090E0A0E0B0E4808391836F
:103AD000A283B3838E010B571F4FFE01E757FF4FA1
:103AE000608171818281938120E030E04AEF54E46B
:103AF0000E941F02DC01CB01F80180839183A28325
:103B0000B383FE01EB57FF4F608171818281938106
:103B100020E030E040E85FE30E942504882344F47D
:103B2000FE01ED57FF4F81E090E09183808364C0F8
:103B3000FE01EB57FF4F608171818281938120E00C
:103B40003FEF4FE757E40E94C50318160CF043C03F
:103B5000FE01E757FF4F608171818281938120E0F0
:103B600030E040E251E40E941F02DC01CB018E01F3
:103B70000D571F4FBC01CD010E944900DC01CB0154
:103B8000F801918380831FC0FE01EF57FF4F88EC3F
:103B900090E091838083FE01EF57FF4F80819181F8
:103BA0000197F1F7FE01EF57FF4F91838083DE010C
:103BB000AD57BF4FFE01ED57FF4F808191810197B7
:103BC00011969C938E93FE01ED57FF4F808191815A
:103BD0000097D1F627C08E010D571F4FFE01EB57FE
:103BE000FF4F60817181828193810E944900DC01D5
:103BF000CB01F80191838083DE01A158BF4FFE0104
:103C0000ED57FF4F808191818D939C93FE01E15888
:103C1000FF4F808191810197F1F7FE01E158FF4F3D
:103C20009183808381E060E00E94BF1683EA90E088
:103C30000E94F316FE01E558FF4F80E090E0A8ECEB
:103C4000B2E480839183A283B3838E0109581F4F0E
:103C5000FE01E558FF4F608171818281938120E0F0
:103C600030E04AEF54E40E941F02DC01CB01F8016E
:103C700080839183A283B383FE01E958FF4F608163
:103C800071818281938120E030E040E85FE30E940F
:103C90002504882344F4FE01EB58FF4F81E090E0B7
:103CA0009183808364C0FE01E958FF4F6081718178
:103CB0008281938120E03FEF4FE757E40E94C503E4
:103CC00018160CF043C0FE01E558FF4F608171816A
:103CD0008281938120E030E040E251E40E941F02A3
:103CE000DC01CB018E010B581F4FBC01CD010E949E
:103CF0004900DC01CB01F801918380831FC0FE01E4
:103D0000ED58FF4F88EC90E091838083FE01ED58E1
:103D1000FF4F808191810197F1F7FE01ED58FF4F30
:103D200091838083DE01AB58BF4FFE01EB58FF4FFC
:103D300080819181019711969C938E93FE01EB589F
:103D4000FF4F808191810097D1F627C08E010B58DB
:103D50001F4FFE01E958FF4F60817181828193817D
:103D60000E944900DC01CB01F80191838083DE01D0
:103D7000AF58BF4FFE01EB58FF4F808191818D936B
:103D80009C93FE01EF58FF4F808191810197F1F7DD
:103D9000FE01EF58FF4F9183808381E00E94EB1476
:103DA000FE01E359FF4F80E090E0A0E0B0E48083A3
:103DB0009183A283B3838E0107591F4FFE01E359FC
:103DC000FF4F608171818281938120E030E04AEF72
:103DD00054E40E941F02DC01CB01F801808391832F
:103DE000A283B383FE01E759FF4F60817181828115
:103DF000938120E030E040E85FE30E9425048823BF
:103E000044F4FE01E959FF4F81E090E09183808303
:103E100064C0FE01E759FF4F608171818281938107
:103E200020E03FEF4FE757E40E94C50318160CF05F
:103E300043C0FE01E359FF4F60817181828193810C
:103E400020E030E040E251E40E941F02DC01CB019F
:103E50008E0109591F4FBC01CD010E944900DC01B0
:103E6000CB01F801918380831FC0FE01EB59FF4F06
:103E700088EC90E091838083FE01EB59FF4F8081B5
:103E800091810197F1F7FE01EB59FF4F91838083F8
:103E9000DE01A959BF4FFE01E959FF4F8081918191
:103EA000019711969C938E93FE01E959FF4F8081F3
:103EB00091810097D1F627C08E0109591F4FFE014D
:103EC000E759FF4F60817181828193810E9449008F
:103ED000DC01CB01F80191838083DE01AD59BF4F36
:103EE000FE01E959FF4F808191818D939C93FE01E2
:103EF000ED59FF4F808191810197F1F7FE01ED5956
:103F0000FF4F9183808381E060E00E94BF1684EBC5
:103F100090E00E94F31682E062E00E94BF1685ECFA
:103F200090E00E94F316FE01E15AFF4F80E090E01E
:103F3000A8ECB2E480839183A283B3838E01055AF7
:103F40001F4FFE01E15AFF4F608171818281938191
:103F500020E030E04AEF54E40E941F02DC01CB0174
:103F6000F80180839183A283B383FE01E55AFF4F5A
:103F7000608171818281938120E030E040E85FE3DD
:103F80000E942504882344F4FE01E75AFF4F81E094
:103F900090E09183808364C0FE01E55AFF4F608109
:103FA00071818281938120E03FEF4FE757E40E94C7
:103FB000C50318160CF043C0FE01E15AFF4F6081A3
:103FC00071818281938120E030E040E251E40E94DF
:103FD0001F02DC01CB018E01075A1F4FBC01CD012E
:103FE0000E944900DC01CB01F801918380831FC04E
:103FF000FE01E95AFF4F88EC90E091838083FE0137
:10400000E95AFF4F808191810197F1F7FE01E95A4A
:10401000FF4F91838083DE01A75ABF4FFE01E75A0D
:10402000FF4F80819181019711969C938E93FE01A1
:10403000E75AFF4F808191810097D1F627C08E010A
:10404000075A1F4FFE01E55AFF4F6081718182813F
:1040500093810E944900DC01CB01F80191838083A8
:10406000DE01AB5ABF4FFE01E75AFF4F80819181BD
:104070008D939C93FE01EB5AFF4F808191810197B4
:10408000F1F7FE01EB5AFF4F9183808381E00E949C
:10409000EB14FE01EF5AFF4F80E090E0A0E0B0E4A7
:1040A00080839183A283B3838E01035B1F4FFE0144
:1040B000EF5AFF4F608171818281938120E030E06F
:1040C0004AEF54E40E941F02DC01CB01F801808317
:1040D0009183A283B383FE01E35BFF4F6081718113
:1040E0008281938120E030E040E85FE30E94250474
:1040F000882344F4FE01E55BFF4F81E090E091836B
:10410000808364C0FE01E35BFF4F60817181828127
:10411000938120E03FEF4FE757E40E94C503181654
:104120000CF043C0FE01EF5AFF4F60817181828124
:10413000938120E030E040E251E40E941F02DC0164
:10414000CB018E01055B1F4FBC01CD010E944900D0
:10415000DC01CB01F801918380831FC0FE01E75B86
:10416000FF4F88EC90E091838083FE01E75BFF4F77
:10417000808191810197F1F7FE01E75BFF4F918309
:104180008083DE01A55BBF4FFE01E55BFF4F8081B1
:104190009181019711969C938E93FE01E55BFF4FF1
:1041A000808191810097D1F627C08E01055B1F4F5A
:1041B000FE01E35BFF4F60817181828193810E94E8
:1041C0004900DC01CB01F80191838083DE01A95B0A
:1041D000BF4FFE01E55BFF4F808191818D939C93E2
:1041E000FE01E95BFF4F808191810197F1F7FE01AC
:1041F000E95BFF4F9183808381E060E00E94BF16FE
:104200008FEC90E00E94F31682E060E00E94BF16FF
:1042100080EE90E00E94F316CE0184529F4F0E94E0
:10422000B618FE01E452FF4F8081813309F01EC1B0
:1042300081E00E94EB14FE01ED5BFF4F80E090E017
:10424000A0E0B0E480839183A283B3838E01015CFC
:104250001F4FFE01ED5BFF4F608171818281938171
:1042600020E030E04AEF54E40E941F02DC01CB0161
:10427000F80180839183A283B383FE01FF9660815E
:1042800071818281938120E030E040E85FE30E9409
:10429000250488232CF481E090E09EAF8DAF46C0CA
:1042A000FE01FF96608171818281938120E03FEF62
:1042B0004FE757E40E94C503181664F5FE01ED5B55
:1042C000FF4F608171818281938120E030E040E284
:1042D00051E40E941F02DC01CB01BC01CD010E9410
:1042E0004900DC01CB019EAF8DAF0FC088EC90E0A0
:1042F0009CAF8BAF8BAD9CAD0197F1F79CAF8BAFB3
:104300008DAD9EAD01979EAF8DAF8DAD9EAD0097EB
:1043100069F716C0FE01FF966081718182819381E9
:104320000E944900DC01CB019EAF8DAF8DAD9EADEB
:104330009AAF89AF89AD9AAD0197F1F79AAF89AF7E
:104340008CEE90E00E94F31682E060E00E94BF16BF
:1043500089EF90E00E94F316CE0184529F4F0E9495
:10436000B618FE01E452FF4F8081813319F40E9498
:10437000621802C00E947E1881E00E94EB1480E067
:1043800090E0A0E0B0E48DAB9EABAFABB8AF6DA951
:104390007EA98FA998AD20E030E04AEF54E40E9456
:1043A0001F02DC01CB0189AB9AABABABBCAB69A9FB
:1043B0007AA98BA99CA920E030E040E85FE30E9445
:1043C000250488232CF481E090E098AB8FA73FC0B0
:1043D00069A97AA98BA99CA920E03FEF4FE757E490
:1043E0000E94C50318164CF56DA97EA98FA998AD3A
:1043F00020E030E040E251E40E941F02DC01CB01EA
:10440000BC01CD010E944900DC01CB0198AB8FA714
:104410000FC088EC90E09EA78DA78DA59EA5019763
:10442000F1F79EA78DA78FA598A9019798AB8FA7A5
:104430008FA598A9009769F714C069A97AA98BA9D3
:104440009CA90E944900DC01CB0198AB8FA78FA5E6
:1044500098A99CA78BA78BA59CA50197F1F79CA772
:104460008BA788E091E00E94F3168BC1FE01E45215
:10447000FF4F8081823309F00BC181E00E94EB1471
:1044800080E090E0A0E0B0E48FA398A7A9A7BAA726
:104490006FA178A589A59AA520E030E04AEF54E401
:1044A0000E941F02DC01CB018BA39CA3ADA3BEA382
:1044B0006BA17CA18DA19EA120E030E040E85FE3EC
:1044C0000E94250488232CF481E090E09AA389A31C
:1044D0003FC06BA17CA18DA19EA120E03FEF4FE7E3
:1044E00057E40E94C50318164CF56FA178A589A55D
:1044F0009AA520E030E040E251E40E941F02DC0176
:10450000CB01BC01CD010E944900DC01CB019AA383
:1045100089A30FC088EC90E098A38F8F8F8D98A10E
:104520000197F1F798A38F8F89A19AA101979AA378
:1045300089A389A19AA1009769F714C06BA17CA1F6
:104540008DA19EA10E944900DC01CB019AA389A301
:1045500089A19AA19E8F8D8F8D8D9E8D0197F1F7E8
:104560009E8F8D8F8CEE90E00E94F31682E060E0CB
:104570000E94BF1689EF90E00E94F316CE0184528C
:104580009F4F0E94B618FE01E452FF4F8081813098
:1045900019F40E94360D02C00E94620F81E00E9451
:1045A000EB1480E090E0A0E0B0E4898F9A8FAB8FAD
:1045B000BC8F698D7A8D8B8D9C8D20E030E04AEF29
:1045C00054E40E941F02DC01CB018D8B9E8BAF8BCC
:1045D000B88F6D897E898F89988D20E030E040E822
:1045E0005FE30E94250488232CF481E090E09C8BFB
:1045F0008B8B3FC06D897E898F89988D20E03FEF3E
:104600004FE757E40E94C50318164CF5698D7A8D63
:104610008B8D9C8D20E030E040E251E40E941F022F
:10462000DC01CB01BC01CD010E944900DC01CB01C2
:104630009C8B8B8B0FC088EC90E09A8B898B89893F
:104640009A890197F1F79A8B898B8B899C890197BD
:104650009C8B8B8B8B899C89009769F714C06D8923
:104660007E898F89988D0E944900DC01CB019C8B4B
:104670008B8B8B899C89988B8F878F8598890197E5
:10468000F1F7988B8F8788E091E00E94F31679C04C
:1046900081E00E94EB1480E090E0A0E0B0E48B8722
:1046A0009C87AD87BE876B857C858D859E8520E048
:1046B00030E04AEF54E40E941F02DC01CB018F83FB
:1046C0009887A987BA876F81788589859A8520E040
:1046D00030E040E85FE30E94250488232CF481E069
:1046E00090E09E838D833FC06F81788589859A8510
:1046F00020E03FEF4FE757E40E94C50318164CF542
:104700006B857C858D859E8520E030E040E251E41C
:104710000E941F02DC01CB01BC01CD010E944900B7
:10472000DC01CB019E838D830FC088EC90E09C83DD
:104730008B838B819C810197F1F79C838B838D8187
:104740009E8101979E838D838D819E81009769F75D
:1047500014C06F81788589859A850E944900DC01A3
:10476000CB019E838D838D819E819A8389838981EC
:104770009A810197F1F79A83898388E091E00E94FA
:10478000F31680E0C452DF4F0FB6F894DEBF0FBEC1
:10479000CDBFCF91DF911F910F9108952F923F923E
:1047A0004F925F926F927F928F929F92AF92BF9241
:1047B000CF92DF92EF92FF920F931F93CF93DF93ED
:1047C000CDB7DEB7CA1BDB0B0FB6F894DEBF0FBE4A
:1047D000CDBF09942A88398848885F846E847D8497
:1047E0008C849B84AA84B984C884DF80EE80FD8099
:1047F0000C811B81AA81B981CE0FD11D0FB6F8940F
:0E480000DEBF0FBECDBFED010895F894FFCFCF
:10480E0050524553532054484520425554544F4E10
:10481E0000544F20535441525400454E544552209B
:10482E00594F555220504153530057726F6E6720A7
:10483E0050617373776F72640054727920416761AF
:10484E00696E00434F5252454354205041535357C3
:10485E004F52440057454C434F4D4520544F204D29
:10486E004F544F520044415348424F41524400313D
:10487E002D4443204D4F544F5220332D4558540054
:10488E00322D535452204D4F544F5200312D434C24
:10489E004F434B205749534500322D4320434C4F35
:1048AE00434B205749534500454E44205441534BEA
:1048BE0000353035000000000000000000373839A8
:1048CE002F3435362A3132332D43303D2B03040538
:0648DE00060001020300C8
:00000001FF
