:100000000C942A000C9434000C9434000C943400AA
:100010000C9434000C9434000C9434000C94340090
:100020000C9434000C9434000C9434000C94340080
:100030000C9434000C9434000C9434000C94340070
:100040000C9434000C9434000C9434000C94340060
:100050000C94340011241FBECFE5D8E0DEBFCDBF25
:100060000E9465020C9482020C94000087E08ABB17
:1000700017BA14BA11BA1BBA18BA15BA12BA089537
:10008000843008F084C0683008F081C0423008F045
:100090007EC0813031F1813038F0823009F43EC0C9
:1000A000833009F076C056C0442321F0413009F076
:1000B00070C00BC02AB381E090E002C0880F991F86
:1000C0006A95E2F7282B2ABB60C02AB381E090E052
:1000D00002C0880F991F6A95E2F7809582238ABB38
:1000E00054C0442321F0413009F053C00BC027B362
:1000F00081E090E002C0880F991F6A95E2F7282BF3
:1001000027BB43C027B381E090E002C0880F991F4E
:100110006A95E2F78095822387BB37C0442319F0A4
:100120004130B9F50BC024B381E090E002C0880FE4
:10013000991F6A95E2F7282B24BB27C024B381E0DE
:1001400090E002C0880F991F6A95E2F7809582239C
:1001500084BB1BC0442319F04130D9F40BC021B338
:1001600081E090E002C0880F991F6A95E2F7282B82
:1001700021BB0BC021B381E090E002C0880F991F22
:100180006A95E2F78095822381BB81E0089580E043
:10019000089581E00895843008F075C0683008F053
:1001A00072C0423008F06FC0813029F1813038F0E0
:1001B000823009F43CC0833009F063C047C0442357
:1001C00071F0413009F05FC02BB381E090E002C0D4
:1001D000880F991F6A95E2F7282B2BBB52C02BB3CF
:1001E00081E090E002C0880F991F6A95E2F7809540
:1001F00082238BBB46C0442371F0413009F043C0D9
:1002000028B381E090E002C0880F991F6A95E2F759
:10021000282B28BB36C028B381E090E002C0880FAD
:10022000991F6A95E2F78095822388BB2AC04423F0
:1002300091F0413041F525B381E090E002C0880F94
:10024000991F6A95E2F7282B25BB1BC0442319F0A0
:100250004130C9F40CC025B381E090E002C0880FA2
:10026000991F6A95E2F78095822385BB0AC022B365
:1002700081E090E002C0880F991F6A95E2F7282B71
:1002800022BB81E0089580E00895282FFA01843090
:1002900060F5683050F54115510539F1813049F06C
:1002A000813028F0823081F08330D1F40FC089B3DF
:1002B0000EC086B390E002C0959587956A95E2F7E7
:1002C00080FF0DC020830CC083B301C080B390E0D9
:1002D00002C0959587956A95E2F780FD03C010826C
:1002E00081E0089581E08083089580E00895813061
:1002F00089F0813030F08230B1F08330E9F080E075
:100300000895662321F0613009F51ABA1DC08FEFF8
:100310008ABB1AC0662321F06130C1F417BA14C039
:100320008FEF87BB11C0662321F0613079F414BAD6
:100330000BC08FEF84BB08C0662321F0613031F41D
:1003400011BA02C08FEF81BB81E0089581E008956A
:10035000843010F080E00895813089F0813028F0F9
:100360008230B9F0833051F51EC0662319F0613038
:1003700029F502C01BBA20C08FEF8BBB1DC06623BE
:1003800019F06130D9F402C018BA16C08FEF88BBDB
:1003900013C0662319F0613089F402C015BA0CC08D
:1003A0008FEF85BB09C0662319F0613039F402C0B4
:1003B00012BA02C08FEF82BB81E0089581E00895F8
:1003C000FB018430B0F46115710599F0813049F07A
:1003D000813028F0823039F0833049F406C089B387
:1003E00005C086B303C083B301C080B3808381E0BE
:1003F000089580E008951F93182F80E060E041E0A9
:100400000E94CB0080E061E040E00E94CB0083E0EE
:10041000612F0E94A80180E062E041E00E94CB00D1
:1004200082E08A95F1F780E062E040E00E94CB0034
:100430001F9108951F93182F80E060E040E00E9414
:10044000CB0080E061E040E00E94CB0083E0612FC0
:100450000E94A80180E062E041E00E94CB0082E0BF
:100460008A95F1F780E062E040E00E94CB001F91A6
:10047000089580E991E028EC30E0F9013197F1F737
:100480000197D9F788E30E941A0282EC91E028ECE8
:1004900030E0F9013197F1F70197D9F78FE00E9429
:1004A0001A0282EC91E028EC30E0F9013197F1F783
:1004B0000197D9F781E00E941A0280E797E101973E
:1004C000F1F786E00E941A0208950E9436000E9409
:1004D000390281E40E94FB0182E40E94FB0184E472
:1004E0000E94FB0185E50E94FB018CE40E94FB0158
:1004F0008CE40E94FB0181E40E94FB0188E40E94DD
:08050000FB01FFCFF894FFCFCF
:00000001FF
